{
  "contractName": "Lottery",
  "abi": [
    {
      "inputs": [],
      "stateMutability": "nonpayable",
      "type": "constructor"
    },
    {
      "anonymous": false,
      "inputs": [
        {
          "indexed": false,
          "internalType": "string",
          "name": "message",
          "type": "string"
        }
      ],
      "name": "ANewPlayerEnrolled",
      "type": "event"
    },
    {
      "anonymous": false,
      "inputs": [
        {
          "indexed": false,
          "internalType": "string",
          "name": "",
          "type": "string"
        },
        {
          "indexed": false,
          "internalType": "address",
          "name": "",
          "type": "address"
        }
      ],
      "name": "fml",
      "type": "event"
    },
    {
      "inputs": [],
      "name": "owner",
      "outputs": [
        {
          "internalType": "address",
          "name": "",
          "type": "address"
        }
      ],
      "stateMutability": "view",
      "type": "function",
      "constant": true
    },
    {
      "inputs": [
        {
          "internalType": "uint256",
          "name": "",
          "type": "uint256"
        }
      ],
      "name": "players",
      "outputs": [
        {
          "internalType": "address",
          "name": "",
          "type": "address"
        }
      ],
      "stateMutability": "view",
      "type": "function",
      "constant": true
    },
    {
      "inputs": [
        {
          "internalType": "uint256",
          "name": "newOdds",
          "type": "uint256"
        }
      ],
      "name": "setJackPotOdds",
      "outputs": [],
      "stateMutability": "nonpayable",
      "type": "function"
    },
    {
      "inputs": [],
      "name": "getPricePool",
      "outputs": [
        {
          "internalType": "uint256",
          "name": "",
          "type": "uint256"
        }
      ],
      "stateMutability": "view",
      "type": "function",
      "constant": true
    },
    {
      "inputs": [],
      "name": "getBalance",
      "outputs": [
        {
          "internalType": "uint256",
          "name": "",
          "type": "uint256"
        }
      ],
      "stateMutability": "view",
      "type": "function",
      "constant": true
    },
    {
      "inputs": [],
      "name": "getJackPot",
      "outputs": [
        {
          "internalType": "uint256",
          "name": "",
          "type": "uint256"
        }
      ],
      "stateMutability": "view",
      "type": "function",
      "constant": true
    },
    {
      "inputs": [
        {
          "internalType": "string",
          "name": "playerName",
          "type": "string"
        }
      ],
      "name": "enroleInLottery",
      "outputs": [],
      "stateMutability": "payable",
      "type": "function",
      "payable": true
    },
    {
      "inputs": [],
      "name": "getParticipants",
      "outputs": [
        {
          "internalType": "address[]",
          "name": "",
          "type": "address[]"
        }
      ],
      "stateMutability": "view",
      "type": "function",
      "constant": true
    },
    {
      "inputs": [],
      "name": "getNumberOfParticipants",
      "outputs": [
        {
          "internalType": "uint256",
          "name": "",
          "type": "uint256"
        }
      ],
      "stateMutability": "view",
      "type": "function",
      "constant": true
    },
    {
      "inputs": [],
      "name": "getAWinner",
      "outputs": [
        {
          "internalType": "string",
          "name": "",
          "type": "string"
        }
      ],
      "stateMutability": "view",
      "type": "function",
      "constant": true
    },
    {
      "inputs": [],
      "name": "getCalculatedPrizePool",
      "outputs": [
        {
          "internalType": "uint256",
          "name": "",
          "type": "uint256"
        }
      ],
      "stateMutability": "view",
      "type": "function",
      "constant": true
    }
  ],
  "bytecode": "0x6080604052600a60015534801561001557600080fd5b50336000806101000a81548173ffffffffffffffffffffffffffffffffffffffff021916908373ffffffffffffffffffffffffffffffffffffffff160217905550611305806100656000396000f3fe60806040526004361061009c5760003560e01c806371f543b61161006457806371f543b6146101765780638da5cb5b146101a1578063c4740b27146101cc578063c80c28a2146101e8578063f1bd4c0414610213578063f71d96cb1461023e5761009c565b806312065fe0146100a15780631fec1cf7146100cc578063301a913d146100f757806338d69d6e146101205780635aa68ac01461014b575b600080fd5b3480156100ad57600080fd5b506100b661027b565b6040516100c39190610851565b60405180910390f35b3480156100d857600080fd5b506100e1610283565b6040516100ee9190610851565b60405180910390f35b34801561010357600080fd5b5061011e600480360381019061011991906108ac565b61028d565b005b34801561012c57600080fd5b50610135610340565b6040516101429190610851565b60405180910390f35b34801561015757600080fd5b506101606103ab565b60405161016d91906109c9565b60405180910390f35b34801561018257600080fd5b5061018b610439565b6040516101989190610a7b565b60405180910390f35b3480156101ad57600080fd5b506101b66105e1565b6040516101c39190610aac565b60405180910390f35b6101e660048036038101906101e19190610bfc565b610605565b005b3480156101f457600080fd5b506101fd6107e2565b60405161020a9190610851565b60405180910390f35b34801561021f57600080fd5b506102286107ef565b6040516102359190610851565b60405180910390f35b34801561024a57600080fd5b50610265600480360381019061026091906108ac565b6107f9565b6040516102729190610aac565b60405180910390f35b600047905090565b6000600254905090565b60008054906101000a900473ffffffffffffffffffffffffffffffffffffffff1673ffffffffffffffffffffffffffffffffffffffff163373ffffffffffffffffffffffffffffffffffffffff161461031b576040517f08c379a000000000000000000000000000000000000000000000000000000000815260040161031290610c91565b60405180910390fd5b6000811015801561032d575060648111155b61033657600080fd5b8060018190555050565b60008060004442604051602001610358929190610cd2565b6040516020818303038152906040528051906020012060001c905060006001546064836103859190610d2d565b1115905080156103a25760035460025461039f9190610d8d565b92505b82935050505090565b6060600580548060200260200160405190810160405280929190818152602001828054801561042f57602002820191906000526020600020905b8160009054906101000a900473ffffffffffffffffffffffffffffffffffffffff1673ffffffffffffffffffffffffffffffffffffffff16815260200190600101908083116103e5575b5050505050905090565b6060600a60058054905014610483576040517f08c379a000000000000000000000000000000000000000000000000000000000815260040161047a90610e33565b60405180910390fd5b60006005805490509050600044426040516020016104a2929190610cd2565b6040516020818303038152906040528051906020012060001c9050600082826104cb9190610d2d565b90506000600582815481106104e3576104e2610e53565b5b9060005260206000200160009054906101000a900473ffffffffffffffffffffffffffffffffffffffff169050600460008273ffffffffffffffffffffffffffffffffffffffff1673ffffffffffffffffffffffffffffffffffffffff168152602001908152602001600020805461055a90610eb1565b80601f016020809104026020016040519081016040528092919081815260200182805461058690610eb1565b80156105d35780601f106105a8576101008083540402835291602001916105d3565b820191906000526020600020905b8154815290600101906020018083116105b657829003601f168201915b505050505094505050505090565b60008054906101000a900473ffffffffffffffffffffffffffffffffffffffff1681565b670de0b6b3a7640000341461061957600080fd5b600081511161062757600080fd5b600a6005805490501061063957600080fd5b80600460003373ffffffffffffffffffffffffffffffffffffffff1673ffffffffffffffffffffffffffffffffffffffff1681526020019081526020016000209081610685919061108e565b506005339080600181540180825580915050600190039060005260206000200160009091909190916101000a81548173ffffffffffffffffffffffffffffffffffffffff021916908373ffffffffffffffffffffffffffffffffffffffff1602179055506064605a346106f89190611160565b61070291906111a2565b600260008282546107139190610d8d565b9250508190555060646009346107299190611160565b61073391906111a2565b600360008282546107449190610d8d565b925050819055507f1083aa1b186bae344e722cd79f12ca4a73f99c9b39655aaa8d040823ac667346600460003373ffffffffffffffffffffffffffffffffffffffff1673ffffffffffffffffffffffffffffffffffffffff1681526020019081526020016000206040516020016107bb91906112ad565b6040516020818303038152906040526040516107d79190610a7b565b60405180910390a150565b6000600580549050905090565b6000600354905090565b6005818154811061080957600080fd5b906000526020600020016000915054906101000a900473ffffffffffffffffffffffffffffffffffffffff1681565b6000819050919050565b61084b81610838565b82525050565b60006020820190506108666000830184610842565b92915050565b6000604051905090565b600080fd5b600080fd5b61088981610838565b811461089457600080fd5b50565b6000813590506108a681610880565b92915050565b6000602082840312156108c2576108c1610876565b5b60006108d084828501610897565b91505092915050565b600081519050919050565b600082825260208201905092915050565b6000819050602082019050919050565b600073ffffffffffffffffffffffffffffffffffffffff82169050919050565b600061093082610905565b9050919050565b61094081610925565b82525050565b60006109528383610937565b60208301905092915050565b6000602082019050919050565b6000610976826108d9565b61098081856108e4565b935061098b836108f5565b8060005b838110156109bc5781516109a38882610946565b97506109ae8361095e565b92505060018101905061098f565b5085935050505092915050565b600060208201905081810360008301526109e3818461096b565b905092915050565b600081519050919050565b600082825260208201905092915050565b60005b83811015610a25578082015181840152602081019050610a0a565b60008484015250505050565b6000601f19601f8301169050919050565b6000610a4d826109eb565b610a5781856109f6565b9350610a67818560208601610a07565b610a7081610a31565b840191505092915050565b60006020820190508181036000830152610a958184610a42565b905092915050565b610aa681610925565b82525050565b6000602082019050610ac16000830184610a9d565b92915050565b600080fd5b600080fd5b7f4e487b7100000000000000000000000000000000000000000000000000000000600052604160045260246000fd5b610b0982610a31565b810181811067ffffffffffffffff82111715610b2857610b27610ad1565b5b80604052505050565b6000610b3b61086c565b9050610b478282610b00565b919050565b600067ffffffffffffffff821115610b6757610b66610ad1565b5b610b7082610a31565b9050602081019050919050565b82818337600083830152505050565b6000610b9f610b9a84610b4c565b610b31565b905082815260208101848484011115610bbb57610bba610acc565b5b610bc6848285610b7d565b509392505050565b600082601f830112610be357610be2610ac7565b5b8135610bf3848260208601610b8c565b91505092915050565b600060208284031215610c1257610c11610876565b5b600082013567ffffffffffffffff811115610c3057610c2f61087b565b5b610c3c84828501610bce565b91505092915050565b7f466f6e6374696f6e207265736572766572206175206f776e6572000000000000600082015250565b6000610c7b601a836109f6565b9150610c8682610c45565b602082019050919050565b60006020820190508181036000830152610caa81610c6e565b9050919050565b6000819050919050565b610ccc610cc782610838565b610cb1565b82525050565b6000610cde8285610cbb565b602082019150610cee8284610cbb565b6020820191508190509392505050565b7f4e487b7100000000000000000000000000000000000000000000000000000000600052601260045260246000fd5b6000610d3882610838565b9150610d4383610838565b925082610d5357610d52610cfe565b5b828206905092915050565b7f4e487b7100000000000000000000000000000000000000000000000000000000600052601160045260246000fd5b6000610d9882610838565b9150610da383610838565b9250828201905080821115610dbb57610dba610d5e565b5b92915050565b7f576520646f206e6f742068617665203130207061727469636970616e7473207960008201527f6574200000000000000000000000000000000000000000000000000000000000602082015250565b6000610e1d6023836109f6565b9150610e2882610dc1565b604082019050919050565b60006020820190508181036000830152610e4c81610e10565b9050919050565b7f4e487b7100000000000000000000000000000000000000000000000000000000600052603260045260246000fd5b7f4e487b7100000000000000000000000000000000000000000000000000000000600052602260045260246000fd5b60006002820490506001821680610ec957607f821691505b602082108103610edc57610edb610e82565b5b50919050565b60008190508160005260206000209050919050565b60006020601f8301049050919050565b600082821b905092915050565b600060088302610f447fffffffffffffffffffffffffffffffffffffffffffffffffffffffffffffffff82610f07565b610f4e8683610f07565b95508019841693508086168417925050509392505050565b6000819050919050565b6000610f8b610f86610f8184610838565b610f66565b610838565b9050919050565b6000819050919050565b610fa583610f70565b610fb9610fb182610f92565b848454610f14565b825550505050565b600090565b610fce610fc1565b610fd9818484610f9c565b505050565b5b81811015610ffd57610ff2600082610fc6565b600181019050610fdf565b5050565b601f8211156110425761101381610ee2565b61101c84610ef7565b8101602085101561102b578190505b61103f61103785610ef7565b830182610fde565b50505b505050565b600082821c905092915050565b600061106560001984600802611047565b1980831691505092915050565b600061107e8383611054565b9150826002028217905092915050565b611097826109eb565b67ffffffffffffffff8111156110b0576110af610ad1565b5b6110ba8254610eb1565b6110c5828285611001565b600060209050601f8311600181146110f857600084156110e6578287015190505b6110f08582611072565b865550611158565b601f19841661110686610ee2565b60005b8281101561112e57848901518255600182019150602085019450602081019050611109565b8683101561114b5784890151611147601f891682611054565b8355505b6001600288020188555050505b505050505050565b600061116b82610838565b915061117683610838565b925082820261118481610838565b9150828204841483151761119b5761119a610d5e565b5b5092915050565b60006111ad82610838565b91506111b883610838565b9250826111c8576111c7610cfe565b5b828204905092915050565b600081905092915050565b600081546111eb81610eb1565b6111f581866111d3565b94506001821660008114611210576001811461122557611258565b60ff1983168652811515820286019350611258565b61122e85610ee2565b60005b8381101561125057815481890152600182019150602081019050611231565b838801955050505b50505092915050565b7f2068617320656e726f6c6c656421212120476f6f64206c75636b210000000000600082015250565b6000611297601b836111d3565b91506112a282611261565b601b82019050919050565b60006112b982846111de565b91506112c48261128a565b91508190509291505056fea2646970667358221220b01d4454921b3c227a2d62fbfdffc6949b5a04cdce5c156cccac83e8069d3f6964736f6c63430008130033",
  "immutableReferences": {},
  "source": "// SPDX-License-Identifier: MIT\r\npragma solidity 0.8.19;\r\n\r\n\r\n\r\ncontract Lottery {\r\n    address public owner;\r\n    uint256 private jackPotOdds = 10;\r\n\r\n    uint256 private prizePool;\r\n    uint256 private jackPot;\r\n    mapping(address => string) player;\r\n    address[] public players;\r\n\r\n    event ANewPlayerEnrolled(string message);\r\n\r\n    // temporaire\r\n        event fml(string, address);\r\n\r\n    constructor(){   \r\n        owner = msg.sender;\r\n    }\r\n\r\n    modifier onlyOwner() {\r\n        require(msg.sender == owner, \"Fonction reserver au owner\");\r\n        _;\r\n    }\r\n    \r\n    function setJackPotOdds(uint256 newOdds) public onlyOwner {   \r\n        require(newOdds >= 0 && newOdds <= 100);     \r\n        jackPotOdds = newOdds;\r\n    }\r\n\r\n    function getPricePool() public view returns (uint) {\r\n        return prizePool;\r\n    }\r\n\r\n    function getBalance() public view returns (uint) {\r\n        return address(this).balance;\r\n    }\r\n\r\n    function getJackPot() public view returns (uint) {\r\n        return jackPot;\r\n    }\r\n\r\n    function enroleInLottery(string memory playerName) public payable {\r\n       require(msg.value == 1 ether);\r\n       require(bytes(playerName).length > 0);\r\n       require(players.length < 10);\r\n        \r\n        player[msg.sender] = playerName;\r\n        players.push(msg.sender);\r\n\r\n        // On garde 10% pour un jackpot potentiel 1 chance sur 10 de frapp le bonus\r\n        prizePool += (msg.value * 90) / 100; \r\n        jackPot += (msg.value * 9) / 100;       \r\n\r\n        emit ANewPlayerEnrolled(string(abi.encodePacked(player[msg.sender], \" has enrolled!!! Good luck!\")));\r\n    }\r\n\r\n    function getParticipants() public view returns(address[] memory){\r\n        return players;\r\n    }\r\n\r\n    function getNumberOfParticipants() public view returns(uint){\r\n        return players.length;\r\n    }\r\n\r\n    function getAWinner() public view returns(string memory){\r\n        \r\n        \r\n        require(players.length == 10, \"We do not have 10 participants yet \");\r\n        uint nbOfPlayers = players.length;\r\n        uint randomHash = uint(keccak256(abi.encodePacked(block.difficulty, block.timestamp)));\r\n        uint winnerIndex = randomHash % nbOfPlayers;\r\n\r\n        address winner = players[winnerIndex];   \r\n\r\n       //sendPrize(winner);\r\n\r\n        //emit fml(player[winner], winner);\r\n        \r\n        return player[winner];\r\n    }\r\n\r\n    function getCalculatedPrizePool() public view returns (uint256){\r\n        uint256 effectivePrize;        \r\n        uint randomHash = uint(keccak256(abi.encodePacked(block.difficulty, block.timestamp)));\r\n        bool isJackpot = (randomHash % 100) <= jackPotOdds;\r\n\r\n        if(isJackpot){\r\n            effectivePrize = prizePool + jackPot;\r\n        }\r\n\r\n        return effectivePrize;\r\n    }\r\n    function sendPrize(address winner) private {\r\n        uint prize = prizePool;\r\n        prizePool = 0;\r\n        payable(winner).transfer(prize);\r\n    }\r\n}",
  "sourcePath": "C:\\Users\\nymercier\\OneDrive - Universit Laval\\7. IFT-4100 Aspects pratiques de la chane de blocs_H24\\0. TP3\\Lottery_react_v3\\IFT4100TP3\\contracts\\Lottery.sol",
  "compiler": {
    "name": "solc",
    "version": "0.8.19+commit.7dd6d404.Emscripten.clang"
  },
  "schemaVersion": "3.4.16",
  "updatedAt": "2024-04-19T22:37:06.568Z",
  "networkType": "ethereum",
  "devdoc": {
    "kind": "dev",
    "methods": {},
    "version": 1
  },
  "userdoc": {
    "kind": "user",
    "methods": {},
    "version": 1
  }
}