{
  "contractName": "Lottery",
  "abi": [
    {
      "inputs": [],
      "stateMutability": "nonpayable",
      "type": "constructor"
    },
    {
      "inputs": [
        {
          "internalType": "uint256",
          "name": "",
          "type": "uint256"
        }
      ],
      "name": "players",
      "outputs": [
        {
          "internalType": "address",
          "name": "",
          "type": "address"
        }
      ],
      "stateMutability": "view",
      "type": "function",
      "constant": true
    },
    {
      "inputs": [],
      "name": "getPricePool",
      "outputs": [
        {
          "internalType": "uint256",
          "name": "",
          "type": "uint256"
        }
      ],
      "stateMutability": "view",
      "type": "function",
      "constant": true
    },
    {
      "inputs": [],
      "name": "getBalance",
      "outputs": [
        {
          "internalType": "uint256",
          "name": "",
          "type": "uint256"
        }
      ],
      "stateMutability": "view",
      "type": "function",
      "constant": true
    },
    {
      "inputs": [],
      "name": "getJackPot",
      "outputs": [
        {
          "internalType": "uint256",
          "name": "",
          "type": "uint256"
        }
      ],
      "stateMutability": "view",
      "type": "function",
      "constant": true
    },
    {
      "inputs": [
        {
          "internalType": "string",
          "name": "playerName",
          "type": "string"
        }
      ],
      "name": "enroleInLottery",
      "outputs": [],
      "stateMutability": "payable",
      "type": "function",
      "payable": true
    },
    {
      "inputs": [],
      "name": "getParticipants",
      "outputs": [
        {
          "internalType": "address[]",
          "name": "",
          "type": "address[]"
        }
      ],
      "stateMutability": "view",
      "type": "function",
      "constant": true
    },
    {
      "inputs": [],
      "name": "getAWinner",
      "outputs": [
        {
          "internalType": "address",
          "name": "",
          "type": "address"
        }
      ],
      "stateMutability": "nonpayable",
      "type": "function"
    }
  ],
  "bytecode": "0x608060405234801561001057600080fd5b50610de5806100206000396000f3fe6080604052600436106100705760003560e01c806371f543b61161004e57806371f543b6146100f6578063c4740b2714610121578063f1bd4c041461013d578063f71d96cb1461016857610070565b806312065fe0146100755780631fec1cf7146100a05780635aa68ac0146100cb575b600080fd5b34801561008157600080fd5b5061008a6101a5565b604051610097919061051e565b60405180910390f35b3480156100ac57600080fd5b506100b56101ad565b6040516100c2919061051e565b60405180910390f35b3480156100d757600080fd5b506100e06101b6565b6040516100ed9190610629565b60405180910390f35b34801561010257600080fd5b5061010b610244565b604051610118919061065a565b60405180910390f35b61013b600480360381019061013691906107cf565b61032e565b005b34801561014957600080fd5b50610152610464565b60405161015f919061051e565b60405180910390f35b34801561017457600080fd5b5061018f600480360381019061018a9190610844565b61046e565b60405161019c919061065a565b60405180910390f35b600047905090565b60008054905090565b6060600380548060200260200160405190810160405280929190818152602001828054801561023a57602002820191906000526020600020905b8160009054906101000a900473ffffffffffffffffffffffffffffffffffffffff1673ffffffffffffffffffffffffffffffffffffffff16815260200190600101908083116101f0575b5050505050905090565b6000600a6003805490501461028e576040517f08c379a0000000000000000000000000000000000000000000000000000000008152600401610285906108f4565b60405180910390fd5b60006003805490509050600044426040516020016102ad929190610935565b6040516020818303038152906040528051906020012060001c9050600082826102d69190610990565b90506000600382815481106102ee576102ed6109c1565b5b9060005260206000200160009054906101000a900473ffffffffffffffffffffffffffffffffffffffff169050610324816104ad565b8094505050505090565b670de0b6b3a7640000341461034257600080fd5b600081511161035057600080fd5b80600260003373ffffffffffffffffffffffffffffffffffffffff1673ffffffffffffffffffffffffffffffffffffffff168152602001908152602001600020908161039c9190610c07565b506003339080600181540180825580915050600190039060005260206000200160009091909190916101000a81548173ffffffffffffffffffffffffffffffffffffffff021916908373ffffffffffffffffffffffffffffffffffffffff1602179055506064605a3461040f9190610d08565b6104199190610d4a565b6000808282546104299190610d7b565b92505081905550606460093461043f9190610d08565b6104499190610d4a565b6001600082825461045a9190610d7b565b9250508190555050565b6000600154905090565b6003818154811061047e57600080fd5b906000526020600020016000915054906101000a900473ffffffffffffffffffffffffffffffffffffffff1681565b600080549050600080819055508173ffffffffffffffffffffffffffffffffffffffff166108fc829081150290604051600060405180830381858888f19350505050158015610500573d6000803e3d6000fd5b505050565b6000819050919050565b61051881610505565b82525050565b6000602082019050610533600083018461050f565b92915050565b600081519050919050565b600082825260208201905092915050565b6000819050602082019050919050565b600073ffffffffffffffffffffffffffffffffffffffff82169050919050565b600061059082610565565b9050919050565b6105a081610585565b82525050565b60006105b28383610597565b60208301905092915050565b6000602082019050919050565b60006105d682610539565b6105e08185610544565b93506105eb83610555565b8060005b8381101561061c57815161060388826105a6565b975061060e836105be565b9250506001810190506105ef565b5085935050505092915050565b6000602082019050818103600083015261064381846105cb565b905092915050565b61065481610585565b82525050565b600060208201905061066f600083018461064b565b92915050565b6000604051905090565b600080fd5b600080fd5b600080fd5b600080fd5b6000601f19601f8301169050919050565b7f4e487b7100000000000000000000000000000000000000000000000000000000600052604160045260246000fd5b6106dc82610693565b810181811067ffffffffffffffff821117156106fb576106fa6106a4565b5b80604052505050565b600061070e610675565b905061071a82826106d3565b919050565b600067ffffffffffffffff82111561073a576107396106a4565b5b61074382610693565b9050602081019050919050565b82818337600083830152505050565b600061077261076d8461071f565b610704565b90508281526020810184848401111561078e5761078d61068e565b5b610799848285610750565b509392505050565b600082601f8301126107b6576107b5610689565b5b81356107c684826020860161075f565b91505092915050565b6000602082840312156107e5576107e461067f565b5b600082013567ffffffffffffffff81111561080357610802610684565b5b61080f848285016107a1565b91505092915050565b61082181610505565b811461082c57600080fd5b50565b60008135905061083e81610818565b92915050565b60006020828403121561085a5761085961067f565b5b60006108688482850161082f565b91505092915050565b600082825260208201905092915050565b7f576520646f206e6f742068617665203130207061727469636970616e7473207960008201527f6574000000000000000000000000000000000000000000000000000000000000602082015250565b60006108de602283610871565b91506108e982610882565b604082019050919050565b6000602082019050818103600083015261090d816108d1565b9050919050565b6000819050919050565b61092f61092a82610505565b610914565b82525050565b6000610941828561091e565b602082019150610951828461091e565b6020820191508190509392505050565b7f4e487b7100000000000000000000000000000000000000000000000000000000600052601260045260246000fd5b600061099b82610505565b91506109a683610505565b9250826109b6576109b5610961565b5b828206905092915050565b7f4e487b7100000000000000000000000000000000000000000000000000000000600052603260045260246000fd5b600081519050919050565b7f4e487b7100000000000000000000000000000000000000000000000000000000600052602260045260246000fd5b60006002820490506001821680610a4257607f821691505b602082108103610a5557610a546109fb565b5b50919050565b60008190508160005260206000209050919050565b60006020601f8301049050919050565b600082821b905092915050565b600060088302610abd7fffffffffffffffffffffffffffffffffffffffffffffffffffffffffffffffff82610a80565b610ac78683610a80565b95508019841693508086168417925050509392505050565b6000819050919050565b6000610b04610aff610afa84610505565b610adf565b610505565b9050919050565b6000819050919050565b610b1e83610ae9565b610b32610b2a82610b0b565b848454610a8d565b825550505050565b600090565b610b47610b3a565b610b52818484610b15565b505050565b5b81811015610b7657610b6b600082610b3f565b600181019050610b58565b5050565b601f821115610bbb57610b8c81610a5b565b610b9584610a70565b81016020851015610ba4578190505b610bb8610bb085610a70565b830182610b57565b50505b505050565b600082821c905092915050565b6000610bde60001984600802610bc0565b1980831691505092915050565b6000610bf78383610bcd565b9150826002028217905092915050565b610c10826109f0565b67ffffffffffffffff811115610c2957610c286106a4565b5b610c338254610a2a565b610c3e828285610b7a565b600060209050601f831160018114610c715760008415610c5f578287015190505b610c698582610beb565b865550610cd1565b601f198416610c7f86610a5b565b60005b82811015610ca757848901518255600182019150602085019450602081019050610c82565b86831015610cc45784890151610cc0601f891682610bcd565b8355505b6001600288020188555050505b505050505050565b7f4e487b7100000000000000000000000000000000000000000000000000000000600052601160045260246000fd5b6000610d1382610505565b9150610d1e83610505565b9250828202610d2c81610505565b91508282048414831517610d4357610d42610cd9565b5b5092915050565b6000610d5582610505565b9150610d6083610505565b925082610d7057610d6f610961565b5b828204905092915050565b6000610d8682610505565b9150610d9183610505565b9250828201905080821115610da957610da8610cd9565b5b9291505056fea2646970667358221220830f13ef9cac71f356c463e8aac773fac642ff2caf690289b4e3e6a124780c0864736f6c63430008130033",
  "immutableReferences": {},
  "source": "// SPDX-License-Identifier: MIT\npragma solidity 0.8.19;\n\ncontract Lottery {\n    \n    uint256 private prizePool;\n    uint256 private jackPot;\n\n    mapping(address => string) player;\n    address[] public players;\n\n     uint256 private constant JACKPOT_CHANCE = 10;\n\n    constructor(){   \n    }\n    \n    function getPricePool() public view returns (uint) {\n        return prizePool;\n    }\n\n    function getBalance() public view returns (uint) {\n        return address(this).balance;\n    }\n\n    function getJackPot() public view returns (uint) {\n        return jackPot;\n    }\n\n    function enroleInLottery(string memory playerName) public payable {\n       require(msg.value == 1 ether);\n       require(bytes(playerName).length > 0);\n        \n        player[msg.sender] = playerName;\n        players.push(msg.sender);\n\n        // On garde 10% pour un jackpot potentiel 1 chance sur 10 de frapp le bonus\n        prizePool += (msg.value * 90) / 100; \n        jackPot += (msg.value * 9) / 100;             \n    }\n\n    function getParticipants() public view returns(address[] memory){\n        return players;\n    }\n\n    function getAWinner() public returns(address){\n        require(players.length == 10, \"We do not have 10 participants yet\");\n        uint nbOfPlayers = players.length;\n        uint randomHash = uint(keccak256(abi.encodePacked(block.difficulty, block.timestamp)));\n        uint winnerIndex = randomHash % nbOfPlayers;\n\n        address winner = players[winnerIndex];\n\n        sendPrize(winner);\n        return winner;\n    }\n\n    function getPrizePool() private view returns (uint256){\n        uint256 effectivePrize;        \n        uint randomHash = uint(keccak256(abi.encodePacked(block.difficulty, block.timestamp)));\n        bool isJackpot = (randomHash % 100) < JACKPOT_CHANCE;\n\n        if(isJackpot){\n            effectivePrize = prizePool + jackPot;\n        }\n\n        return effectivePrize;\n    }\n    function sendPrize(address winner) private {\n        uint prize = prizePool;\n        prizePool = 0;\n        payable(winner).transfer(prize);\n    }\n}",
  "sourcePath": "D:\\doc\\Universit\\Universit-laval\\IFT-4100 Aspects pratiques de la chane de blocs\\TP3\\Lottery\\contracts\\Lottery.sol",
  "compiler": {
    "name": "solc",
    "version": "0.8.19+commit.7dd6d404.Emscripten.clang"
  },
  "schemaVersion": "3.4.16",
  "updatedAt": "2024-04-18T18:08:34.808Z",
  "networkType": "ethereum",
  "devdoc": {
    "kind": "dev",
    "methods": {},
    "version": 1
  },
  "userdoc": {
    "kind": "user",
    "methods": {},
    "version": 1
  }
}