{
  "contractName": "Lottery",
  "abi": [
    {
      "inputs": [],
      "stateMutability": "nonpayable",
      "type": "constructor"
    },
    {
      "inputs": [
        {
          "internalType": "uint256",
          "name": "",
          "type": "uint256"
        }
      ],
      "name": "participantList",
      "outputs": [
        {
          "internalType": "address",
          "name": "",
          "type": "address"
        }
      ],
      "stateMutability": "view",
      "type": "function",
      "constant": true
    },
    {
      "inputs": [],
      "name": "getPricePool",
      "outputs": [
        {
          "internalType": "uint256",
          "name": "",
          "type": "uint256"
        }
      ],
      "stateMutability": "view",
      "type": "function",
      "constant": true
    },
    {
      "inputs": [],
      "name": "getBalance",
      "outputs": [
        {
          "internalType": "uint256",
          "name": "",
          "type": "uint256"
        }
      ],
      "stateMutability": "view",
      "type": "function",
      "constant": true
    },
    {
      "inputs": [],
      "name": "enroleInLottery",
      "outputs": [],
      "stateMutability": "payable",
      "type": "function",
      "payable": true
    },
    {
      "inputs": [],
      "name": "getParticipants",
      "outputs": [
        {
          "internalType": "address[]",
          "name": "",
          "type": "address[]"
        }
      ],
      "stateMutability": "view",
      "type": "function",
      "constant": true
    }
  ],
  "bytecode": "0x60a060405234801561001057600080fd5b5073be934830a53e59159de1ff923e927308d4fdc65073ffffffffffffffffffffffffffffffffffffffff1660808173ffffffffffffffffffffffffffffffffffffffff16815250506080516105da610071600039600050506105da6000f3fe60806040526004361061004a5760003560e01c80630e6fdaa11461004f57806312065fe01461008c5780631fec1cf7146100b75780635aa68ac0146100e2578063a03dfff61461010d575b600080fd5b34801561005b57600080fd5b506100766004803603810190610071919061030c565b610117565b604051610083919061037a565b60405180910390f35b34801561009857600080fd5b506100a1610156565b6040516100ae91906103a4565b60405180910390f35b3480156100c357600080fd5b506100cc61015e565b6040516100d991906103a4565b60405180910390f35b3480156100ee57600080fd5b506100f7610168565b604051610104919061047d565b60405180910390f35b6101156101f6565b005b6000818154811061012757600080fd5b906000526020600020016000915054906101000a900473ffffffffffffffffffffffffffffffffffffffff1681565b600047905090565b6000600154905090565b606060008054806020026020016040519081016040528092919081815260200182805480156101ec57602002820191906000526020600020905b8160009054906101000a900473ffffffffffffffffffffffffffffffffffffffff1673ffffffffffffffffffffffffffffffffffffffff16815260200190600101908083116101a2575b5050505050905090565b670de0b6b3a7640000341461020a57600080fd5b6064605a3461021991906104ce565b610223919061053f565b600160008282546102349190610570565b92505081905550606460093461024a91906104ce565b610254919061053f565b600260008282546102659190610570565b925050819055506000339080600181540180825580915050600190039060005260206000200160009091909190916101000a81548173ffffffffffffffffffffffffffffffffffffffff021916908373ffffffffffffffffffffffffffffffffffffffff160217905550565b600080fd5b6000819050919050565b6102e9816102d6565b81146102f457600080fd5b50565b600081359050610306816102e0565b92915050565b600060208284031215610322576103216102d1565b5b6000610330848285016102f7565b91505092915050565b600073ffffffffffffffffffffffffffffffffffffffff82169050919050565b600061036482610339565b9050919050565b61037481610359565b82525050565b600060208201905061038f600083018461036b565b92915050565b61039e816102d6565b82525050565b60006020820190506103b96000830184610395565b92915050565b600081519050919050565b600082825260208201905092915050565b6000819050602082019050919050565b6103f481610359565b82525050565b600061040683836103eb565b60208301905092915050565b6000602082019050919050565b600061042a826103bf565b61043481856103ca565b935061043f836103db565b8060005b8381101561047057815161045788826103fa565b975061046283610412565b925050600181019050610443565b5085935050505092915050565b60006020820190508181036000830152610497818461041f565b905092915050565b7f4e487b7100000000000000000000000000000000000000000000000000000000600052601160045260246000fd5b60006104d9826102d6565b91506104e4836102d6565b92508282026104f2816102d6565b915082820484148315176105095761050861049f565b5b5092915050565b7f4e487b7100000000000000000000000000000000000000000000000000000000600052601260045260246000fd5b600061054a826102d6565b9150610555836102d6565b92508261056557610564610510565b5b828204905092915050565b600061057b826102d6565b9150610586836102d6565b925082820190508082111561059e5761059d61049f565b5b9291505056fea26469706673582212202dfe301f9002be8038b71858f8442704de1766cc540e577b080c7f3677cd450264736f6c63430008130033",
  "immutableReferences": {},
  "source": "// SPDX-License-Identifier: MIT\npragma solidity 0.8.19;\n\ncontract Lottery {\n     \n    address[] public participantList;\n    uint256 private pricePool;\n    uint256 private jackPot;\n\n    address immutable player1;\n\n    constructor(){\n        player1 = 0xbE934830a53E59159de1ff923e927308D4FDc650;\n    }\n    \n    function getPricePool() public view returns (uint) {\n        return pricePool;\n    }\n\n    function getBalance() public view returns (uint) {\n        return address(this).balance;\n    }\n\n    function enroleInLottery() external payable {\n        require(msg.value == 1 ether);\n        \n        // On garde 10% pour un jackpot potentiel p-e? 1 chance sur 1000 de frapp le bonus\n        pricePool += (msg.value * 90) / 100; \n        jackPot += (msg.value * 9) / 100;\n        participantList.push(msg.sender);        \n    }\n\n    function getParticipants() public view returns(address[] memory){\n        return participantList;\n    }\n}",
  "sourcePath": "D:\\doc\\Universit\\Universit-laval\\IFT-4100 Aspects pratiques de la chane de blocs\\TP3\\Lottery\\contracts\\Lottery.sol",
  "compiler": {
    "name": "solc",
    "version": "0.8.19+commit.7dd6d404.Emscripten.clang"
  },
  "schemaVersion": "3.4.16",
  "updatedAt": "2024-04-16T23:49:45.583Z",
  "networkType": "ethereum",
  "devdoc": {
    "kind": "dev",
    "methods": {},
    "version": 1
  },
  "userdoc": {
    "kind": "user",
    "methods": {},
    "version": 1
  }
}