{
  "contractName": "Lottery",
  "abi": [
    {
      "inputs": [],
      "stateMutability": "nonpayable",
      "type": "constructor"
    },
    {
      "inputs": [
        {
          "internalType": "uint256",
          "name": "",
          "type": "uint256"
        }
      ],
      "name": "participantList",
      "outputs": [
        {
          "internalType": "address",
          "name": "",
          "type": "address"
        }
      ],
      "stateMutability": "view",
      "type": "function",
      "constant": true
    },
    {
      "inputs": [
        {
          "internalType": "uint256",
          "name": "data",
          "type": "uint256"
        }
      ],
      "name": "set",
      "outputs": [],
      "stateMutability": "nonpayable",
      "type": "function"
    },
    {
      "inputs": [],
      "name": "get",
      "outputs": [
        {
          "internalType": "uint256",
          "name": "",
          "type": "uint256"
        }
      ],
      "stateMutability": "view",
      "type": "function",
      "constant": true
    },
    {
      "inputs": [],
      "name": "getBalance",
      "outputs": [
        {
          "internalType": "uint256",
          "name": "",
          "type": "uint256"
        }
      ],
      "stateMutability": "view",
      "type": "function",
      "constant": true
    },
    {
      "inputs": [],
      "name": "enroleInLottery",
      "outputs": [],
      "stateMutability": "payable",
      "type": "function",
      "payable": true
    },
    {
      "inputs": [],
      "name": "getParticipants",
      "outputs": [
        {
          "internalType": "address[]",
          "name": "",
          "type": "address[]"
        }
      ],
      "stateMutability": "view",
      "type": "function",
      "constant": true
    }
  ],
  "bytecode": "0x608060405234801561001057600080fd5b506104b0806100206000396000f3fe6080604052600436106100555760003560e01c80630e6fdaa11461005a57806312065fe0146100975780635aa68ac0146100c257806360fe47b1146100ed5780636d4ce63c14610116578063a03dfff614610141575b600080fd5b34801561006657600080fd5b50610081600480360381019061007c91906102e7565b61014b565b60405161008e9190610355565b60405180910390f35b3480156100a357600080fd5b506100ac61018a565b6040516100b9919061037f565b60405180910390f35b3480156100ce57600080fd5b506100d7610192565b6040516100e49190610458565b60405180910390f35b3480156100f957600080fd5b50610114600480360381019061010f91906102e7565b610220565b005b34801561012257600080fd5b5061012b61022a565b604051610138919061037f565b60405180910390f35b610149610233565b005b6001818154811061015b57600080fd5b906000526020600020016000915054906101000a900473ffffffffffffffffffffffffffffffffffffffff1681565b600047905090565b6060600180548060200260200160405190810160405280929190818152602001828054801561021657602002820191906000526020600020905b8160009054906101000a900473ffffffffffffffffffffffffffffffffffffffff1673ffffffffffffffffffffffffffffffffffffffff16815260200190600101908083116101cc575b5050505050905090565b8060008190555050565b60008054905090565b670de0b6b3a7640000341461024757600080fd5b6001339080600181540180825580915050600190039060005260206000200160009091909190916101000a81548173ffffffffffffffffffffffffffffffffffffffff021916908373ffffffffffffffffffffffffffffffffffffffff160217905550565b600080fd5b6000819050919050565b6102c4816102b1565b81146102cf57600080fd5b50565b6000813590506102e1816102bb565b92915050565b6000602082840312156102fd576102fc6102ac565b5b600061030b848285016102d2565b91505092915050565b600073ffffffffffffffffffffffffffffffffffffffff82169050919050565b600061033f82610314565b9050919050565b61034f81610334565b82525050565b600060208201905061036a6000830184610346565b92915050565b610379816102b1565b82525050565b60006020820190506103946000830184610370565b92915050565b600081519050919050565b600082825260208201905092915050565b6000819050602082019050919050565b6103cf81610334565b82525050565b60006103e183836103c6565b60208301905092915050565b6000602082019050919050565b60006104058261039a565b61040f81856103a5565b935061041a836103b6565b8060005b8381101561044b57815161043288826103d5565b975061043d836103ed565b92505060018101905061041e565b5085935050505092915050565b6000602082019050818103600083015261047281846103fa565b90509291505056fea264697066735822122069150a539c59ded48e68acdc39d2812419762c9c724011a950810be53657c0e364736f6c63430008130033",
  "immutableReferences": {},
  "source": "// SPDX-License-Identifier: MIT\npragma solidity 0.8.19;\n\ncontract Lottery {\n \n    uint private storedData;\n    address[] public participantList;\n\n    constructor(){}\n\n    function set(uint  data) public {\n        storedData = data;\n    }\n    function get() public view returns (uint) {\n        return storedData;\n    }\n    function getBalance() public view returns (uint) {\n        return address(this).balance;\n    }\n    function enroleInLottery() external payable {\n        require(msg.value == 1 ether);\n        participantList.push(msg.sender);\n    }\n    function getParticipants() public view returns(address[] memory){\n        return participantList;\n    }\n}",
  "sourcePath": "D:\\doc\\Universit\\Universit-laval\\IFT-4100 Aspects pratiques de la chane de blocs\\TP3\\Lottery\\contracts\\Lottery.sol",
  "compiler": {
    "name": "solc",
    "version": "0.8.19+commit.7dd6d404.Emscripten.clang"
  },
  "schemaVersion": "3.4.16",
  "updatedAt": "2024-04-15T19:05:15.422Z",
  "networkType": "ethereum",
  "devdoc": {
    "kind": "dev",
    "methods": {},
    "version": 1
  },
  "userdoc": {
    "kind": "user",
    "methods": {},
    "version": 1
  }
}