{
  "contractName": "Lottery",
  "abi": [
    {
      "inputs": [],
      "stateMutability": "nonpayable",
      "type": "constructor"
    },
    {
      "anonymous": false,
      "inputs": [
        {
          "indexed": false,
          "internalType": "string",
          "name": "message",
          "type": "string"
        }
      ],
      "name": "ANewPlayerEnrolled",
      "type": "event"
    },
    {
      "inputs": [],
      "name": "owner",
      "outputs": [
        {
          "internalType": "address",
          "name": "",
          "type": "address"
        }
      ],
      "stateMutability": "view",
      "type": "function",
      "constant": true
    },
    {
      "inputs": [
        {
          "internalType": "uint256",
          "name": "",
          "type": "uint256"
        }
      ],
      "name": "players",
      "outputs": [
        {
          "internalType": "address",
          "name": "",
          "type": "address"
        }
      ],
      "stateMutability": "view",
      "type": "function",
      "constant": true
    },
    {
      "inputs": [
        {
          "internalType": "uint256",
          "name": "newOdds",
          "type": "uint256"
        }
      ],
      "name": "setJackPotOdds",
      "outputs": [],
      "stateMutability": "nonpayable",
      "type": "function"
    },
    {
      "inputs": [],
      "name": "getPricePool",
      "outputs": [
        {
          "internalType": "uint256",
          "name": "",
          "type": "uint256"
        }
      ],
      "stateMutability": "view",
      "type": "function",
      "constant": true
    },
    {
      "inputs": [],
      "name": "getBalance",
      "outputs": [
        {
          "internalType": "uint256",
          "name": "",
          "type": "uint256"
        }
      ],
      "stateMutability": "view",
      "type": "function",
      "constant": true
    },
    {
      "inputs": [],
      "name": "getJackPot",
      "outputs": [
        {
          "internalType": "uint256",
          "name": "",
          "type": "uint256"
        }
      ],
      "stateMutability": "view",
      "type": "function",
      "constant": true
    },
    {
      "inputs": [
        {
          "internalType": "string",
          "name": "playerName",
          "type": "string"
        }
      ],
      "name": "enroleInLottery",
      "outputs": [],
      "stateMutability": "payable",
      "type": "function",
      "payable": true
    },
    {
      "inputs": [],
      "name": "getParticipants",
      "outputs": [
        {
          "internalType": "address[]",
          "name": "",
          "type": "address[]"
        }
      ],
      "stateMutability": "view",
      "type": "function",
      "constant": true
    },
    {
      "inputs": [],
      "name": "getNumberOfParticipants",
      "outputs": [
        {
          "internalType": "uint256",
          "name": "",
          "type": "uint256"
        }
      ],
      "stateMutability": "view",
      "type": "function",
      "constant": true
    },
    {
      "inputs": [],
      "name": "getAWinner",
      "outputs": [
        {
          "internalType": "string",
          "name": "",
          "type": "string"
        }
      ],
      "stateMutability": "nonpayable",
      "type": "function"
    },
    {
      "inputs": [],
      "name": "getCalculatedPrizePool",
      "outputs": [
        {
          "internalType": "uint256",
          "name": "",
          "type": "uint256"
        }
      ],
      "stateMutability": "view",
      "type": "function",
      "constant": true
    }
  ],
  "bytecode": "0x6080604052600a60015534801561001557600080fd5b50336000806101000a81548173ffffffffffffffffffffffffffffffffffffffff021916908373ffffffffffffffffffffffffffffffffffffffff160217905550611311806100656000396000f3fe60806040526004361061009c5760003560e01c806371f543b61161006457806371f543b6146101765780638da5cb5b146101a1578063c4740b27146101cc578063c80c28a2146101e8578063f1bd4c0414610213578063f71d96cb1461023e5761009c565b806312065fe0146100a15780631fec1cf7146100cc578063301a913d146100f757806338d69d6e146101205780635aa68ac01461014b575b600080fd5b3480156100ad57600080fd5b506100b661027b565b6040516100c39190610857565b60405180910390f35b3480156100d857600080fd5b506100e1610283565b6040516100ee9190610857565b60405180910390f35b34801561010357600080fd5b5061011e600480360381019061011991906108b2565b61028d565b005b34801561012c57600080fd5b50610135610325565b6040516101429190610857565b60405180910390f35b34801561015757600080fd5b5061016061038f565b60405161016d91906109cf565b60405180910390f35b34801561018257600080fd5b5061018b61041d565b6040516101989190610a81565b60405180910390f35b3480156101ad57600080fd5b506101b66105f6565b6040516101c39190610ab2565b60405180910390f35b6101e660048036038101906101e19190610c02565b61061a565b005b3480156101f457600080fd5b506101fd6107e5565b60405161020a9190610857565b60405180910390f35b34801561021f57600080fd5b506102286107f2565b6040516102359190610857565b60405180910390f35b34801561024a57600080fd5b50610265600480360381019061026091906108b2565b6107fc565b6040516102729190610ab2565b60405180910390f35b600047905090565b6000600254905090565b60008054906101000a900473ffffffffffffffffffffffffffffffffffffffff1673ffffffffffffffffffffffffffffffffffffffff163373ffffffffffffffffffffffffffffffffffffffff161461031b576040517f08c379a000000000000000000000000000000000000000000000000000000000815260040161031290610c97565b60405180910390fd5b8060018190555050565b6000806000444260405160200161033d929190610cd8565b6040516020818303038152906040528051906020012060001c9050600060015460648361036a9190610d33565b1090508015610386576003546002546103839190610d93565b92505b82935050505090565b6060600580548060200260200160405190810160405280929190818152602001828054801561041357602002820191906000526020600020905b8160009054906101000a900473ffffffffffffffffffffffffffffffffffffffff1673ffffffffffffffffffffffffffffffffffffffff16815260200190600101908083116103c9575b5050505050905090565b6060600a6005805490501460058054905060405160200161043e9190610e44565b6040516020818303038152906040529061048e576040517f08c379a00000000000000000000000000000000000000000000000000000000081526004016104859190610a81565b60405180910390fd5b5060006005805490509050600044426040516020016104ae929190610cd8565b6040516020818303038152906040528051906020012060001c9050600082826104d79190610d33565b90506000600582815481106104ef576104ee610e6a565b5b9060005260206000200160009054906101000a900473ffffffffffffffffffffffffffffffffffffffff1690506105258161083b565b600460008273ffffffffffffffffffffffffffffffffffffffff1673ffffffffffffffffffffffffffffffffffffffff168152602001908152602001600020805461056f90610ec8565b80601f016020809104026020016040519081016040528092919081815260200182805461059b90610ec8565b80156105e85780601f106105bd576101008083540402835291602001916105e8565b820191906000526020600020905b8154815290600101906020018083116105cb57829003601f168201915b505050505094505050505090565b60008054906101000a900473ffffffffffffffffffffffffffffffffffffffff1681565b670de0b6b3a7640000341461062e57600080fd5b600081511161063c57600080fd5b80600460003373ffffffffffffffffffffffffffffffffffffffff1673ffffffffffffffffffffffffffffffffffffffff168152602001908152602001600020908161068891906110a5565b506005339080600181540180825580915050600190039060005260206000200160009091909190916101000a81548173ffffffffffffffffffffffffffffffffffffffff021916908373ffffffffffffffffffffffffffffffffffffffff1602179055506064605a346106fb9190611177565b61070591906111b9565b600260008282546107169190610d93565b92505081905550606460093461072c9190611177565b61073691906111b9565b600360008282546107479190610d93565b925050819055507f1083aa1b186bae344e722cd79f12ca4a73f99c9b39655aaa8d040823ac667346600460003373ffffffffffffffffffffffffffffffffffffffff1673ffffffffffffffffffffffffffffffffffffffff1681526020019081526020016000206040516020016107be91906112b9565b6040516020818303038152906040526040516107da9190610a81565b60405180910390a150565b6000600580549050905090565b6000600354905090565b6005818154811061080c57600080fd5b906000526020600020016000915054906101000a900473ffffffffffffffffffffffffffffffffffffffff1681565b50565b6000819050919050565b6108518161083e565b82525050565b600060208201905061086c6000830184610848565b92915050565b6000604051905090565b600080fd5b600080fd5b61088f8161083e565b811461089a57600080fd5b50565b6000813590506108ac81610886565b92915050565b6000602082840312156108c8576108c761087c565b5b60006108d68482850161089d565b91505092915050565b600081519050919050565b600082825260208201905092915050565b6000819050602082019050919050565b600073ffffffffffffffffffffffffffffffffffffffff82169050919050565b60006109368261090b565b9050919050565b6109468161092b565b82525050565b6000610958838361093d565b60208301905092915050565b6000602082019050919050565b600061097c826108df565b61098681856108ea565b9350610991836108fb565b8060005b838110156109c25781516109a9888261094c565b97506109b483610964565b925050600181019050610995565b5085935050505092915050565b600060208201905081810360008301526109e98184610971565b905092915050565b600081519050919050565b600082825260208201905092915050565b60005b83811015610a2b578082015181840152602081019050610a10565b60008484015250505050565b6000601f19601f8301169050919050565b6000610a53826109f1565b610a5d81856109fc565b9350610a6d818560208601610a0d565b610a7681610a37565b840191505092915050565b60006020820190508181036000830152610a9b8184610a48565b905092915050565b610aac8161092b565b82525050565b6000602082019050610ac76000830184610aa3565b92915050565b600080fd5b600080fd5b7f4e487b7100000000000000000000000000000000000000000000000000000000600052604160045260246000fd5b610b0f82610a37565b810181811067ffffffffffffffff82111715610b2e57610b2d610ad7565b5b80604052505050565b6000610b41610872565b9050610b4d8282610b06565b919050565b600067ffffffffffffffff821115610b6d57610b6c610ad7565b5b610b7682610a37565b9050602081019050919050565b82818337600083830152505050565b6000610ba5610ba084610b52565b610b37565b905082815260208101848484011115610bc157610bc0610ad2565b5b610bcc848285610b83565b509392505050565b600082601f830112610be957610be8610acd565b5b8135610bf9848260208601610b92565b91505092915050565b600060208284031215610c1857610c1761087c565b5b600082013567ffffffffffffffff811115610c3657610c35610881565b5b610c4284828501610bd4565b91505092915050565b7f466f6e6374696f6e207265736572766572206175206f776e6572000000000000600082015250565b6000610c81601a836109fc565b9150610c8c82610c4b565b602082019050919050565b60006020820190508181036000830152610cb081610c74565b9050919050565b6000819050919050565b610cd2610ccd8261083e565b610cb7565b82525050565b6000610ce48285610cc1565b602082019150610cf48284610cc1565b6020820191508190509392505050565b7f4e487b7100000000000000000000000000000000000000000000000000000000600052601260045260246000fd5b6000610d3e8261083e565b9150610d498361083e565b925082610d5957610d58610d04565b5b828206905092915050565b7f4e487b7100000000000000000000000000000000000000000000000000000000600052601160045260246000fd5b6000610d9e8261083e565b9150610da98361083e565b9250828201905080821115610dc157610dc0610d64565b5b92915050565b600081905092915050565b7f576520646f206e6f742068617665203130207061727469636970616e7473207960008201527f657420776520686176653a200000000000000000000000000000000000000000602082015250565b6000610e2e602c83610dc7565b9150610e3982610dd2565b602c82019050919050565b6000610e4f82610e21565b9150610e5b8284610cc1565b60208201915081905092915050565b7f4e487b7100000000000000000000000000000000000000000000000000000000600052603260045260246000fd5b7f4e487b7100000000000000000000000000000000000000000000000000000000600052602260045260246000fd5b60006002820490506001821680610ee057607f821691505b602082108103610ef357610ef2610e99565b5b50919050565b60008190508160005260206000209050919050565b60006020601f8301049050919050565b600082821b905092915050565b600060088302610f5b7fffffffffffffffffffffffffffffffffffffffffffffffffffffffffffffffff82610f1e565b610f658683610f1e565b95508019841693508086168417925050509392505050565b6000819050919050565b6000610fa2610f9d610f988461083e565b610f7d565b61083e565b9050919050565b6000819050919050565b610fbc83610f87565b610fd0610fc882610fa9565b848454610f2b565b825550505050565b600090565b610fe5610fd8565b610ff0818484610fb3565b505050565b5b8181101561101457611009600082610fdd565b600181019050610ff6565b5050565b601f8211156110595761102a81610ef9565b61103384610f0e565b81016020851015611042578190505b61105661104e85610f0e565b830182610ff5565b50505b505050565b600082821c905092915050565b600061107c6000198460080261105e565b1980831691505092915050565b6000611095838361106b565b9150826002028217905092915050565b6110ae826109f1565b67ffffffffffffffff8111156110c7576110c6610ad7565b5b6110d18254610ec8565b6110dc828285611018565b600060209050601f83116001811461110f57600084156110fd578287015190505b6111078582611089565b86555061116f565b601f19841661111d86610ef9565b60005b8281101561114557848901518255600182019150602085019450602081019050611120565b86831015611162578489015161115e601f89168261106b565b8355505b6001600288020188555050505b505050505050565b60006111828261083e565b915061118d8361083e565b925082820261119b8161083e565b915082820484148315176111b2576111b1610d64565b5b5092915050565b60006111c48261083e565b91506111cf8361083e565b9250826111df576111de610d04565b5b828204905092915050565b600081546111f781610ec8565b6112018186610dc7565b9450600182166000811461121c576001811461123157611264565b60ff1983168652811515820286019350611264565b61123a85610ef9565b60005b8381101561125c5781548189015260018201915060208101905061123d565b838801955050505b50505092915050565b7f2068617320656e726f6c6c656421212120476f6f64206c75636b210000000000600082015250565b60006112a3601b83610dc7565b91506112ae8261126d565b601b82019050919050565b60006112c582846111ea565b91506112d082611296565b91508190509291505056fea2646970667358221220ded945ca2531b89319c86abfcc47657657a480c5d80cca4c5dceb761144bbfa264736f6c63430008130033",
  "immutableReferences": {},
  "source": "// SPDX-License-Identifier: MIT\r\npragma solidity 0.8.19;\r\n\r\ncontract Lottery {\r\n    address public owner;\r\n    uint256 private jackPotOdds = 10;\r\n\r\n    uint256 private prizePool;\r\n    uint256 private jackPot;\r\n    mapping(address => string) player;\r\n    address[] public players;\r\n\r\n    event ANewPlayerEnrolled(string message);\r\n\r\n    constructor(){   \r\n        owner = msg.sender;\r\n    }\r\n\r\n    modifier onlyOwner() {\r\n        require(msg.sender == owner, \"Fonction reserver au owner\");\r\n        _;\r\n    }\r\n    \r\n    function setJackPotOdds(uint256 newOdds) public onlyOwner {        \r\n        jackPotOdds = newOdds;\r\n    }\r\n    function getPricePool() public view returns (uint) {\r\n        return prizePool;\r\n    }\r\n\r\n    function getBalance() public view returns (uint) {\r\n        return address(this).balance;\r\n    }\r\n\r\n    function getJackPot() public view returns (uint) {\r\n        return jackPot;\r\n    }\r\n\r\n    function enroleInLottery(string memory playerName) public payable {\r\n       require(msg.value == 1 ether);\r\n       require(bytes(playerName).length > 0);\r\n        \r\n        player[msg.sender] = playerName;\r\n        players.push(msg.sender);\r\n\r\n        // On garde 10% pour un jackpot potentiel 1 chance sur 10 de frapp le bonus\r\n        prizePool += (msg.value * 90) / 100; \r\n        jackPot += (msg.value * 9) / 100;       \r\n\r\n        emit ANewPlayerEnrolled(string(abi.encodePacked(player[msg.sender], \" has enrolled!!! Good luck!\")));\r\n    }\r\n\r\n    function getParticipants() public view returns(address[] memory){\r\n        return players;\r\n    }\r\n\r\n    function getNumberOfParticipants() public view returns(uint){\r\n        return players.length;\r\n    }\r\n\r\n    function getAWinner() public returns(string memory){\r\n        require(players.length == 10, string(abi.encodePacked(\"We do not have 10 participants yet we have: \", players.length)));\r\n        uint nbOfPlayers = players.length;\r\n        uint randomHash = uint(keccak256(abi.encodePacked(block.difficulty, block.timestamp)));\r\n        uint winnerIndex = randomHash % nbOfPlayers;\r\n\r\n        address winner = players[winnerIndex];\r\n\r\n        sendPrize(winner);\r\n        \r\n        return player[winner];\r\n    }\r\n\r\n    function getCalculatedPrizePool() public view returns (uint256){\r\n        uint256 effectivePrize;        \r\n        uint randomHash = uint(keccak256(abi.encodePacked(block.difficulty, block.timestamp)));\r\n        bool isJackpot = (randomHash % 100) < jackPotOdds;\r\n\r\n        if(isJackpot){\r\n            effectivePrize = prizePool + jackPot;\r\n        }\r\n\r\n        return effectivePrize;\r\n    }\r\n    function sendPrize(address winner) private {\r\n      /*  uint prize = prizePool;\r\n        prizePool = 0;\r\n        payable(winner).transfer(prize);*/\r\n    }\r\n}",
  "sourcePath": "D:\\doc\\Universit\\Universit-laval\\IFT-4100 Aspects pratiques de la chane de blocs\\TP3\\Lottery\\contracts\\Lottery.sol",
  "compiler": {
    "name": "solc",
    "version": "0.8.19+commit.7dd6d404.Emscripten.clang"
  },
  "schemaVersion": "3.4.16",
  "updatedAt": "2024-04-19T18:25:51.167Z",
  "networkType": "ethereum",
  "devdoc": {
    "kind": "dev",
    "methods": {},
    "version": 1
  },
  "userdoc": {
    "kind": "user",
    "methods": {},
    "version": 1
  }
}