{
  "contractName": "Lottery",
  "abi": [
    {
      "inputs": [],
      "stateMutability": "nonpayable",
      "type": "constructor"
    },
    {
      "inputs": [
        {
          "internalType": "uint256",
          "name": "",
          "type": "uint256"
        }
      ],
      "name": "players",
      "outputs": [
        {
          "internalType": "address",
          "name": "",
          "type": "address"
        }
      ],
      "stateMutability": "view",
      "type": "function",
      "constant": true
    },
    {
      "inputs": [],
      "name": "getPricePool",
      "outputs": [
        {
          "internalType": "uint256",
          "name": "",
          "type": "uint256"
        }
      ],
      "stateMutability": "view",
      "type": "function",
      "constant": true
    },
    {
      "inputs": [],
      "name": "getBalance",
      "outputs": [
        {
          "internalType": "uint256",
          "name": "",
          "type": "uint256"
        }
      ],
      "stateMutability": "view",
      "type": "function",
      "constant": true
    },
    {
      "inputs": [],
      "name": "getJackPot",
      "outputs": [
        {
          "internalType": "uint256",
          "name": "",
          "type": "uint256"
        }
      ],
      "stateMutability": "view",
      "type": "function",
      "constant": true
    },
    {
      "inputs": [],
      "name": "enroleInLottery",
      "outputs": [],
      "stateMutability": "payable",
      "type": "function",
      "payable": true
    },
    {
      "inputs": [],
      "name": "getParticipants",
      "outputs": [
        {
          "internalType": "address[]",
          "name": "",
          "type": "address[]"
        }
      ],
      "stateMutability": "view",
      "type": "function",
      "constant": true
    },
    {
      "inputs": [],
      "name": "getAWinner",
      "outputs": [
        {
          "internalType": "address",
          "name": "",
          "type": "address"
        }
      ],
      "stateMutability": "nonpayable",
      "type": "function"
    }
  ],
  "bytecode": "0x608060405234801561001057600080fd5b506107f2806100206000396000f3fe6080604052600436106100705760003560e01c806371f543b61161004e57806371f543b6146100f6578063a03dfff614610121578063f1bd4c041461012b578063f71d96cb1461015657610070565b806312065fe0146100755780631fec1cf7146100a05780635aa68ac0146100cb575b600080fd5b34801561008157600080fd5b5061008a610193565b6040516100979190610455565b60405180910390f35b3480156100ac57600080fd5b506100b561019b565b6040516100c29190610455565b60405180910390f35b3480156100d757600080fd5b506100e06101a4565b6040516100ed9190610560565b60405180910390f35b34801561010257600080fd5b5061010b610232565b6040516101189190610591565b60405180910390f35b6101296102ca565b005b34801561013757600080fd5b506101406103f3565b60405161014d9190610455565b60405180910390f35b34801561016257600080fd5b5061017d600480360381019061017891906105dd565b6103fd565b60405161018a9190610591565b60405180910390f35b600047905090565b60008054905090565b6060600380548060200260200160405190810160405280929190818152602001828054801561022857602002820191906000526020600020905b8160009054906101000a900473ffffffffffffffffffffffffffffffffffffffff1673ffffffffffffffffffffffffffffffffffffffff16815260200190600101908083116101de575b5050505050905090565b60008060038054905090506000444260405160200161025292919061062b565b6040516020818303038152906040528051906020012060001c90506000828261027b9190610686565b9050600060038281548110610293576102926106b7565b5b9060005260206000200160009054906101000a900473ffffffffffffffffffffffffffffffffffffffff1690508094505050505090565b670de0b6b3a76400003414806102e05750600234145b6102e957600080fd5b34600260003373ffffffffffffffffffffffffffffffffffffffff1673ffffffffffffffffffffffffffffffffffffffff168152602001908152602001600020819055506003339080600181540180825580915050600190039060005260206000200160009091909190916101000a81548173ffffffffffffffffffffffffffffffffffffffff021916908373ffffffffffffffffffffffffffffffffffffffff1602179055506064605a3461039f9190610715565b6103a99190610757565b6000808282546103b99190610788565b9250508190555060646009346103cf9190610715565b6103d99190610757565b600160008282546103ea9190610788565b92505081905550565b6000600154905090565b6003818154811061040d57600080fd5b906000526020600020016000915054906101000a900473ffffffffffffffffffffffffffffffffffffffff1681565b6000819050919050565b61044f8161043c565b82525050565b600060208201905061046a6000830184610446565b92915050565b600081519050919050565b600082825260208201905092915050565b6000819050602082019050919050565b600073ffffffffffffffffffffffffffffffffffffffff82169050919050565b60006104c78261049c565b9050919050565b6104d7816104bc565b82525050565b60006104e983836104ce565b60208301905092915050565b6000602082019050919050565b600061050d82610470565b610517818561047b565b93506105228361048c565b8060005b8381101561055357815161053a88826104dd565b9750610545836104f5565b925050600181019050610526565b5085935050505092915050565b6000602082019050818103600083015261057a8184610502565b905092915050565b61058b816104bc565b82525050565b60006020820190506105a66000830184610582565b92915050565b600080fd5b6105ba8161043c565b81146105c557600080fd5b50565b6000813590506105d7816105b1565b92915050565b6000602082840312156105f3576105f26105ac565b5b6000610601848285016105c8565b91505092915050565b6000819050919050565b6106256106208261043c565b61060a565b82525050565b60006106378285610614565b6020820191506106478284610614565b6020820191508190509392505050565b7f4e487b7100000000000000000000000000000000000000000000000000000000600052601260045260246000fd5b60006106918261043c565b915061069c8361043c565b9250826106ac576106ab610657565b5b828206905092915050565b7f4e487b7100000000000000000000000000000000000000000000000000000000600052603260045260246000fd5b7f4e487b7100000000000000000000000000000000000000000000000000000000600052601160045260246000fd5b60006107208261043c565b915061072b8361043c565b92508282026107398161043c565b915082820484148315176107505761074f6106e6565b5b5092915050565b60006107628261043c565b915061076d8361043c565b92508261077d5761077c610657565b5b828204905092915050565b60006107938261043c565b915061079e8361043c565b92508282019050808211156107b6576107b56106e6565b5b9291505056fea2646970667358221220755cb5c4cb912e65e8793ea37ea58d14a3225a42b0390a5bf6006df06af2eead64736f6c63430008130033",
  "immutableReferences": {},
  "source": "// SPDX-License-Identifier: MIT\npragma solidity 0.8.19;\n\ncontract Lottery {\n    \n    uint256 private prizePool;\n    uint256 private jackPot;\n\n    mapping(address => uint) player;\n    address[] public players;\n\n    constructor(){   \n    }\n    \n    function getPricePool() public view returns (uint) {\n        return prizePool;\n    }\n\n    function getBalance() public view returns (uint) {\n        return address(this).balance;\n    }\n\n    function getJackPot() public view returns (uint) {\n        return jackPot;\n    }\n\n    function enroleInLottery() public payable {\n       require(msg.value == 1 ether || msg.value == 2);\n        \n        player[msg.sender] = msg.value;\n        players.push(msg.sender);\n\n        // On garde 10% pour un jackpot potentiel p-e? 1 chance sur 1000 de frapp le bonus\n        prizePool += (msg.value * 90) / 100; \n        jackPot += (msg.value * 9) / 100;             \n    }\n\n    function getParticipants() public view returns(address[] memory){\n        return players;\n    }\n\n    function getAWinner() public returns(address){\n        uint nbOfPlayers = players.length;\n        uint randomHash = uint(keccak256(abi.encodePacked(block.difficulty, block.timestamp)));\n        uint winnerIndex = randomHash % nbOfPlayers;\n\n        address winner = players[winnerIndex];\n        return winner;\n    }\n\n    function sendPrize(address winner) private {\n        uint prize = prizePool;\n        prizePool = 0;\n        payable(winner).transfer(prize);\n    }\n}",
  "sourcePath": "D:\\doc\\Universit\\Universit-laval\\IFT-4100 Aspects pratiques de la chane de blocs\\TP3\\Lottery\\contracts\\Lottery.sol",
  "compiler": {
    "name": "solc",
    "version": "0.8.19+commit.7dd6d404.Emscripten.clang"
  },
  "schemaVersion": "3.4.16",
  "updatedAt": "2024-04-18T02:34:04.833Z",
  "networkType": "ethereum",
  "devdoc": {
    "kind": "dev",
    "methods": {},
    "version": 1
  },
  "userdoc": {
    "kind": "user",
    "methods": {},
    "version": 1
  }
}